:200000000C94A1010C94E5010C9400020C94E5010C94E5010C94E5010C94E5010C94E501D8
:200020000C94E5010C94E5010C942A160C94E5010C94E5010C94E5010C94E5010C94E50136
:200040000C94E5010C94E5010C94E5010C94E5010C94E501380C380C6A0C6A0CB70CEB0DD3
:20006000EB0DEB0DD50C6A0D7B0D7B0DDB0DEB0DEB0DE40D870E870E990E990E900E990EA2
:20008000990E990E870E870E950E990E990E950E290000003A003B003C003D003E003F00C0
:2000A000400041000000420043004400450046004700480035001E001F0020002100220007
:2000C000230024002500260027002D002E002A00000049004A004B002B0014001A000800A3
:2000E000150017001C0018000C00120013002F003000310000004C004D004E0039000400BB
:200100001600070009000A000B000D000E000F0033003400000028000000000000000000EB
:20012000E1001D001B000600190005001100100036003700380000000000E50000000000D7
:2001400052000000E000E300E2000000000000002C0000000000E600E7000000015100005D
:20016000E400500051004F00010000000100010001000100010001000100010000000100A1
:2001800001000100010001000100010001000100010001000100010001000100010001004F
:2001A000010001000100010000000100010001000100010001000100005C010001000100D5
:2001C000010001000100010001000100000001000100010001000100010001000100010010
:2001E0000100010001000100010001000000010000000000000000000100010001000100F4
:20020000010001000100A80001000100010000000000E50000000000A900000001000100A0
:2002200001000000000000000100000000000100010000000100000001000100AA0001000C
:2002400009023B00020100A0FA090400000103010100092101010001224000070581030881
:2002600000010904010001030000000921010100012232000705830308000112011001002B
:20028000000008626B698701000102030104033000000014034D005900530054004500525F
:2002A00000490055004D000000200363006F00730065007900660061006E006E006900748D
:2002C00000750074007400690000000403090405010980A101850319012AB700150126B79D
:2002E00000950175108100C0050C0901A101850419012AA002150126A002950175108100FC
:20030000C005010906A101050719E029E715002501950875018102950175088103050719C4
:200320000029FF150026FF0095067508810005081901290595057501910295017503910328
:20034000C00011241FBECFE5D8E0DEBFCDBF04B603FE24C08091AF029091B002A091B1021E
:20036000B091B2028730904BA740B04BB9F41092AF021092B0021092B1021092B20214BE43
:2003800084B7877F84BF0FB6F894A89581B5886181BD11BC0FBEE0E0F8E3099510E0A0E6A5
:2003A000B0E0EAE6F3E302C005900D92A83EB107D9F722E0A8EEB0E001C01D92AF3AB20769
:2003C000E1F70E9491160C94B3190C940000A82FB92F80E090E041E050EA609530E009C038
:2003E0002D9182279795879510F084279527305EC8F36F5FA8F30895EADF8D939D930895E2
:20040000CF93CFB7CF93DF93C395839BE9F7839B10C0839B0EC0839B0CC0839B0AC0839B00
:2004200008C0839B06C0C0918602C395C09386028EC06F93C0918502DD27C357DD4F2F93D0
:2004400065E5839B03C02F916F91E1CF0F931F934F9320E040E15F9300B30C7003FB27F96B
:200460003F9350E03BE039C01C7040642F77012F5F5F1EC0406810B31C702F7752501FC0A6
:20048000406400B32F770C70D1F15F5F00C023C0406210B32F771C7091F15F5F00C025C044
:2004A0000C701027515012F45D5F0000115027952C3F10B3C8F61C700127015027952C3FF1
:2004C000C8F64227499300B30C7010274F73115027952C3FA8F64695469510B31C7079F05D
:2004E0000127015027952C3F98F66B5A60F3315000B3B0F600C010E81ABF00271CC03B50BD
:200500003195C31BD04010E81ABF0881033C21F10B3411F1209182021981110F1213EDCF6B
:200520004A81441F093679F10D3211F0013E29F74F7009F0042F00938B023F915F914F919A
:200540001F910F912F916F91CAB7C7FD5DCFDF91CF91CFBFCF91189520918B02222369F3D0
:2005600010918902112309F03EC034300AF43DC03093890220938402109185023BE0311BAF
:200580003093850232C000918902013064F50AE54F7049F430916D0034FD28C000936D0047
:2005A000CBE6D2E027C0433049F03091760234FD1DC000937602C7E7D2E01CC03091A30251
:2005C00034FD14C00093A302C4EAD2E013C0052710E000C0000002BB1AC0052710E0221FDB
:2005E0001DC010E021C04AE502C032ED432FC4E1D0E032E011B31C60939A02B311BB5CE03A
:2006000020E865E320FF052702BB279517951C3FF0F66695B8F7B1F720FF052702BB2795C3
:2006200017951C3FD0F62795179517FF052700001C3F02BBB0F629913A9519F7037F1091C9
:200640008A02110FC651D04002BB11F01093820210E81ABF086011B3137F402F437F54E0EE
:200660005A95F1F702BB11BB42BB67CF81E0089581E008950C94380308950C943C031F93E2
:20068000CF93DF9300D000D01F92CDB7DEB749835A836B8330910E0189819A81311114C07A
:2006A000662359F0222349F00E94C013182F682F89819A810E94691303C00E949413182F01
:2006C00069817A81812F04C00E94C01369817A810F900F900F900F900F90DF91CF911F91CC
:2006E0000C94F303FC01262F408151816281738184810C943F03CF93DF93EC0160E00E941E
:200700007203BE01DF91CF910C943D030E9465160E94F814811102C00E9498150C940F06D2
:200720000C940B0608950C94920381E008950C949503CF93C82F0E9493038C2F0E94970378
:20074000CF91089508950E94750E0E94A2032FEF84E39CE0215080409040E1F700C00000F9
:200760000C9450160F931F93CF93DF93EC0161E00E9472038C01BE010E943A03882349F1F6
:20078000BE01C8010E94CC07882319F1BE01C8010E940D088823E9F0BE01C8010E94380979
:2007A0008823B9F08A81882369F001158CE5180731F00E3D1C4531F40E9498150AC00E9483
:2007C000A30307C0CE01DF91CF911F910F910C94360380E0DF91CF911F910F91089580E067
:2007E00090E0089508952CE6829FC0011124FC0122E1729FE00DF11D1124E60FF11DEE0FE5
:20080000FF1FE057FF4F859194910895880F991FFC01E05CFD4F859194910895CF93DF93DD
:200820000E94F3030E942005EC018115904508F043C0C11580E4D80708F0CBC0C03ED10596
:2008400028F5C03CD10508F0B3C0C83AD10578F4C53AD10508F0A4C0C130D10509F4ECC059
:2008600008F4E8C0C430D10508F0E6C0E3C0CF3BD10508F0DFC0C85AD0E0CC0FDD1FC2598E
:20088000DF4F0990D881C02DD464D6C0C11590E2D90750F4C11521E0D20708F0CDC0C83ED6
:2008A000D10508F4C9C0C6C0C11580E3D80708F086C0CE019F707FC0C11595E5D90708F0BC
:2008C00043C0C11524E5D20708F09AC0C11582E5D80708F5C11591E5D90708F07DC0CE01C2
:2008E00074E0969587957A95E1F783709C2F937021E030E002C0220F331F9A95E2F73C68B3
:20090000382BCF70C695C69580E2C89FE0011124C22BD32B91C09E01237033278C2F869502
:200920008695C115D34508F05CC0C1E0D0E002C0CC0FDD1F2A95E2F720E2829FC0011124FF
:20094000C82BD92BDC6878C0C11529E5D207A0F4C11588E5D80708F058C0C11596E5D90770
:2009600008F068C08C2F0E94B4058F71C82FD0E0DC2FCC27D06260C0C1152AE5D20708F490
:2009800049C0CE0190568115904208F053C08D2F8F710E94B405DD27D0628F71D82B4CC0CA
:2009A000C55AD0E0C456DF4FC881D0E0D06444C0CE01805C91090E940604EC013DC0CE0145
:2009C0009927D3FF03C0EC01D86C36C0EC01D06C33C0DF70D06A30C0DC2FCC27C16FD06A9E
:2009E0002BC0C1E0D0E002C0CC0FDD1F2A95E2F720E2829FC0011124C82BD92BDA681CC05C
:200A0000DC2FCC27C46FD06A17C0DC2FCC27C06FD06A12C08C2F8F700E94B40594E0D69567
:200A2000C7959A95E1F7CF70D0E0DC2FCC27D069C82B02C0C0E0D0E0CE01DF91CF910895EC
:200A40008238910569F1B0F48133910509F46DC048F48932910509F463C08A32910509F4D8
:200A600069C008958533910509F455C089339105B9F00895833E910569F138F4803E910587
:200A8000B1F0823E910509F10895863E9105A9F1873E9105B9F1843E910509F064C023C077
:200AA0002091690220FD4FC021FD4DC008958091690280FD44C080916A0280FF44C0809118
:200AC000690284FD42C083EE4DC08091690282FF38C0F5CF8091690282FD33C080916A0286
:200AE00080FD31C0ECCF80916A0281FF32C08091690284FD2AC087EE35C08091690283FF8F
:200B000026C0F5CF8091690283FD21C080916A0281FD1FC0ECCF8091690285FD1CC01DC002
:200B20008091690285FD19C016C08091690286FD16C017C08091690286FD13C010C089E34E
:200B400011C082EE0FC080EE0DC080E00BC086EE09C084EE07C089E205C085E303C08AE2E2
:200B600001C081E390E008959091690292FF0DC0282F2871283019F4877F846006C0282FFD
:200B80002471243011F48B7F886093FF0DC0282F2871283119F4877E846106C0282F247124
:200BA000243111F48B7E886120916A0220FF0DC0382F3871383019F4877F816006C0382F47
:200BC0003171313011F48E7F886021FF0DC0282F2871283119F4877E816106C0282F21713F
:200BE000213111F48E7E886194FD877E089524E0829FC0011124FC01E35BFD4F6081718101
:200C0000828193810895089580EA8A95F1F7089508950C9408060C9409060C9408060C942D
:200C20000D06CF93DF93A1EBB0E047EB50E061E070E08D91E82FE295EF70F0E021A98F701A
:200C4000EB0102C0CC0FDD1F8A95E2F7CE019C2F9095922391AB92A9892B82AB4A175B0788
:200C600041F7AFE9B0E041EB50E061E070E08D91E82FE295EF70F0E021A98F70EB0102C0D5
:200C8000CC0FDD1F8A95E2F7CE019C2F9095922391AB92A9892B82AB4A175B0741F7E5E3F6
:200CA000F2E0ADE4B2E08DE492E011921192119211921D921D921D921D928E179F07A9F729
:200CC00086E00E941B07DF91CF910C9486032F923F924F925F926F927F928F929F92AF92E8
:200CE000BF92CF92DF92EF92FF920F931F93CF93DF9300D000D0CDB7DEB721EB30E03A8305
:200D0000298305E312E04DE4242E42E0342ED12CE981FA818191FA83E983482F42954F705C
:200D2000442E512C5C824B82F20191A98F70EE24E394F12C01C0EE0C8A95EAF7892F8E291D
:200D400081AB82A9CE2CC0948C2182AB0E940406AFE9B0E080E090E040E050E0BA01AD9028
:200D6000EA2DE295EF70F0E020A930E0EA2DEF7002C035952795EA95E2F720FD0FC0412C6E
:200D8000512C32014394082E04C0440C551C661C771C0A94D2F75301420103C0812C912CD1
:200DA0005401482959296A297B29019682319105B1F6EB81FC8181A98C2181AB82A9E82A04
:200DC000E2AAF80180819181A281B381481759076A077B0731F0408351836283738381E07E
:200DE00001C080E0D82A0C5F1F4F2016310609F08FCF2D2D46E06DE472E085E392E00E9494
:200E00001C070E9490038D2D0F900F900F900F90DF91CF911F910F91FF90EF90DF90CF9048
:200E2000BF90AF909F908F907F906F905F904F903F902F9008950895FF920F931F93CF93EB
:200E4000DF93F82ED92F8B01C42F222349F081E08093EA000E940F169093E9008093E800C9
:200E60008091EA008823F1F08091E8009091E9000E941B160697B0F0EF2DFD2FD80180E057
:200E800090E04C2F50E08417950754F401911191219131910D931D932D933D930196F3CFD7
:200EA0001092EA00DF91CF911F910F91FF9008950F931F93CF93DF93C62FD42F122FFC01FC
:200EC00082818823C9F06093ED000E940F169093EC008093EB0080E28C0F883008F057C033
:200EE000C77081E001C0880FCA95EAF7DF91CF911F910F910C94F40B8091ED00681330C09A
:200F00008091EB009091EC000E941B16883C910538F500E20D0FCD17B9F080E28C0F88302E
:200F200040F4C77081E001C0880FCA95EAF70E94FB0B083028F581E09D2F977001C0880FC4
:200F40009A95EAF70E94F40B812F0E94E10B0830F0F4D77081E001C0880FDA95EAF70AC06C
:200F600080E28C0F883098F4C77081E001C0880FCA95EAF7DF91CF911F910F910C94FB0B3A
:200F8000812FDF91CF911F910F910C94E10BDF91CF911F910F9108959C01CB01233F4CE53C
:200FA0003407F9F078F4283DFCE53F07B9F0293D4CE5340711F1273D3C4531F526E241EE56
:200FC00061EE1EC0253FFCE53F0799F070F0263F3C45D1F427E245EE66EE12C027E245EE27
:200FE0000EC026E241EE60EE0BC027E245EE64EE07C026E241EE62EE03C028E241E065EEB6
:201000000E94580780E00895FC018281882319F01092ED00089581E00895CF93DF93EC0133
:20102000FB018281882309F41FC1C230FCE5DF0708F41BC1C6319CE5D90738F09E012A5FF0
:201040003C452930310508F010C10E940B1590936A0280936902C031ECE5DE0709F4C3C0C1
:2010600008F041C0C8308CE5D80709F49AC0F0F4C430ECE5DE0709F487C068F4C2308CE547
:20108000D80709F477C0C330DC4509F0E3C080916902826076C0C630ECE5DE0709F46EC022
:2010A00008F07BC08091690288606BC0CC308CE5D80709F485C068F4CA30ECE5DE0709F4D7
:2010C00074C008F079C00E94750E80916902806858C0CE308CE5D80709F476C008F07FC052
:2010E000809169028BC0CB3FECE5DE0709F44FC018F5C3318CE5D80709F47DC078F4C13174
:20110000ECE5DE0709F473C0C231DC4509F0A2C00E94750E809169028F7733C0C5318CE579
:20112000D80709F472C008F486C0CA3FDC4509F091C080916A023EC0CF3FFCE5DF0709F49E
:201140005FC058F4CD3F9CE5D90709F444C008F43FC080916A0282602DC0C130FDE5DF07B6
:2011600009F475C008F45DC0C230DD4509F072C080E06EC080916902816003C080916902BB
:2011800080618093690266C08091690211C080916A02826080936A025DC080916902806224
:2011A000F0CF809169028064ECCF8091690288608460E7CF8160EECF809169028E7FE1CF80
:2011C000809169028D7FDDCF80916902877FD9CF80916A0218C080916A028D7FDBCF809118
:2011E00069028F7ECECF809169028F7DCACF809169028F7BC6CF80916902877F8B7FC1CF82
:2012000080916A028D7F8E7FC5CF8091690282FB222720F991E0922790FB82F990FB83F912
:20122000B0CF80916A02982F909591708E7F892B90FB81F9AFCF0E94750E8091690287FB5E
:20124000222720F991E0922790FB87F99ACF81E00E949A158091690290916A020E941C1500
:201260000E94750E80E001C081E0DF91CF910895CF93DF9386319C4541F5EB010E944114D5
:20128000982F8A812091600030916100882379F09A7A81E009F480E08093EE00911102C0FE
:2012A00069E201C065E3C9010E94E1150AC08091EE00811102C069E201C065E3C9010E949B
:2012C000E3150E948F1480E001C081E0DF91CF9108959093F4008093F3000895E091F300C4
:2012E000F091F400309721F00190F081E02D099480E00895E091F300F091F400309721F047
:201300000280F381E02D099408952091F1003091F2002817390771F09093F2008093F10042
:20132000E091F300F091F400309721F00680F781E02D099408952091EF003091F000281727
:20134000390771F09093F0008093EF00E091F300F091F400309721F00084F185E02D099482
:20136000089584B7806884BF84B7806884BF089508950C94B8090C94B9090C94B8090C9406
:20138000B8090E94B1090E94BD090C94BB0981E008950C94C7090E9408160E9411060E94DB
:2013A00079160C94BF092F923F924F925F926F927F928F929F92AF92BF92CF92DF92EF9289
:2013C000FF920F931F93CF93DF93CDB7DEB72B970FB6F894DEBF0FBECDBF0E9467060E9481
:2013E000C909811111C08FEF89838A831B820E940F168160782F9D838C8349815A816B8175
:201400008D810E94AC0A6BC046EF242E40E0342E00E010E00B87802F0E94F7054B015C01DA
:20142000F10141905190619071901F014626572668267926411451046104710431F40F5FC9
:201440001F4F0630110531F7CECF8091A20181FD0E94030680E0C12CD12C7601C394B30164
:20146000A2014C215D216E217F21452B462B472B71F18E83FB85FF838C209D20AE20BF20D1
:2014800081E089288A288B2809F480E088870E940F168160782F9A8789874E815F8168854D
:2014A0008A850E94AC0A000F111F000F111FF801EA50FF4F80819181A281B381C826D9266F
:2014C000EA26FB26C082D182E282F38208C08F5FCC0CDD1CEE1CFF1C823109F6B0CF0E94EE
:2014E0006E099091F5008917F1F00E946E098093F5002B960FB6F894DEBF0FBECDBFDF9145
:20150000CF911F910F91FF90EF90DF90CF90BF90AF909F908F907F906F905F904F903F90B8
:201520002F900C9499032B960FB6F894DEBF0FBECDBFDF91CF911F910F91FF90EF90DF900B
:20154000CF90BF90AF909F908F907F906F905F904F903F902F900895CF93DF93CDB7DEB75C
:201560002B970FB6F894DEBF0FBECDBF4F83588769877A878B87DE01119686E0FD01119221
:201580008A95E9F785E0FE01379601900D928A95E1F749815A816B817C818D819E810E9497
:2015A0002E112B960FB6F894DEBF0FBECDBFDF91CF910895FC01808191810E940214089512
:2015C000CF93882309F49CC0C82F8238C1F40E946E0981FD95C069E3809160009091610014
:2015E0000E94E1150E948F142FEF81EE94E0215080409040E1F700C0000069E319C0833894
:2016000001F50E946E0980FD7BC063E580916000909161000E94E1150E948F142FEF81EE5E
:2016200094E0215080409040E1F700C0000063E580916000909161000E94E315CF910C94C8
:201640008F148438C1F40E946E0982FD59C067E480916000909161000E94E1150E948F14AA
:201660002FEF81EE94E0215080409040E1F700C0000067E4DDCF8CEF8C0F813AD0F46C2FA9
:2016800080916000909161000E94AB15882349F06C2F80916000909161000E94E3150E9447
:2016A0008F146C2F80916000909161000E94E115C5CF80E28C0F883048F4C77081E001C083
:2016C000880FCA95EAF70E944414B8CFEBE5EC0FE33040F4F0E0EB51FF4F808190E0CF9175
:2016E0000C948509C85AC73158F4EC2FF0E0EE0FFF1FE954FF4F80819181CF910C949B090E
:20170000CF910895882309F45BC0682F823879F40E946E0981FF54C069E3809160009091C0
:2017200061000E94E1150E948F1469E310C08338B1F40E946E0980FF43C063E5809160009B
:20174000909161000E94E1150E948F1463E580916000909161000E94E3150C948F14843856
:2017600079F40E946E0982FF2BC067E480916000909161000E94E1150E948F1467E4E7CF5B
:201780008CEF860F813A18F380E2860F883048F4677081E001C0880F6A95EAF70E944A1418
:2017A000DCCF8BE5860F833020F480E090E00C948509685A673120F480E090E00C949B0932
:2017C0000895CF93C82F0E94E00AC93349F42FEF87EE93E0215080409040E1F700C00000AF
:2017E0008C2FCF910C94820B882321F00E9444140C948F140895882321F00E944A140C94AF
:201800008F140895CF92DF92EF92FF920F931F93CF93DF937C01062FC72FFC01158112959A
:201820001F70D281D1110E9461140E943A14882399F0DD2389F08C2F807F803421F080E24F
:20184000800F883048F082E00E94D9140E943A1491E0D82ED92601C0D12CCC2EC2948FE035
:20186000C8228C2D90E0FC01E65DFF4F0C946C198C2F807FCF70882311F0C295C07FDD2367
:2018800099F0CC2309F482C180E2800F883010F0011104C08C2F0E94441403C08C2F0E943C
:2018A00054140E948F1472C1802F0E94820BCC2309F491C180E2800F883010F0011104C0AD
:2018C0008C2F0E944A1403C08C2F0E945A140E948F1481C18C2F807FCF70803211F0C29535
:2018E000C07F002319F00130C9F022C0DD2371F0112341F0113031F40E9474148C2B0E9402
:201900007C1469C10E9474148C2B1DC0112319F0113009F460C10E94851425C0DD2321F082
:20192000163008F058C10EC0153008F054C11BC0DD2361F0112331F0F701858180FF26C14B
:201940008F7085838C2F0E94F40B45C1112359F0093309F02CC1FFEF27EE83E0F150204078
:201960008040E1F722C18C2F0E94FB0B34C18C2F86958695837019F0813061F02CC1DD23B8
:2019800021F0802F9C2F937002C080E090E00E94850929C1DD2321F0802F9C2F937002C0BD
:2019A00080E090E00E949B091EC18C2F837009F045C0D11114C1402F429546954770440FA4
:2019C000440F602F6F70862F90E0A0E0B0E0042E04C0880F991FAA1FBB1F0A94D2F704FFBF
:2019E00010C00FE010E020E030E004C0000F111F221F331F4A95D2F7009510952095309536
:201A000003C000E010E09801C695C695C370BC01CD01602B712B822B932BC23049F058F41D
:201A2000C13019F00E947F12DAC00E946D12D7C00E949112D4C00E946B12D1C0DD2319F095
:201A40008C2F817001C08695882309F4C8C0402F429546954770440F440F602F6F70862F2D
:201A600090E0A0E0B0E0042E04C0880F991FAA1FBB1F0A94D2F704FF10C00FE010E020E0E5
:201A800030E004C0000F111F221F331F4A95D2F7009510952095309503C000E010E0980118
:201AA000C695C695C370BC01CD01602B712B822B932BC23049F058F4C13019F00E944413B6
:201AC0008EC00E9432138BC00E94561388C00E94A51285C0CF70DD2339F08C2F0E94CB12F3
:201AE000802F0E94F40B7BC0802F0E94FB0B8C2F0E94EC1274C0023F01F128F4003F41F0B6
:201B0000013FA1F03FC0033FF9F0043F39F13AC0DD2341F0153008F05EC08C2F8F710E947A
:201B2000111359C0163008F056C0F7CFDD2339F08C2F8F710E94CB124EC0DD23C9F38C2F66
:201B40008F710E94EC1247C0DD2329F08C2F8F710E94B61240C00E94B1123DC0DD2349F005
:201B6000CF718C2F0E94CB1263E08C2F0E94C41432C081E00E94D914123068F182E00E94F2
:201B8000D91429C0DD2331F0112391F2802F0E94E00A21C0112399F2093349F49FEFE7EEE0
:201BA000F3E09150E040F040E1F700C00000802F0E94820B10C04C2F4F70602FC7010E94A8
:201BC000EF030E94DC110FC04C2F4F70602FC7010E94F20308C088EF8C0D843020F40E944B
:201BE0006E090E949903DD20C9F00E94361480FD15C0F70112820E9430140E94CB12C70183
:201C00000E942F0E0E943014DF91CF911F910F91FF90EF90DF90CF900C94EC12DF91CF9195
:201C20001F910F91FF90EF90DF90CF9008950F931F93CF93DF93EC01688179818A810E9436
:201C40000D148C010E9468130E945912B801CE010E94020CDF91CF911F910F910895CF9355
:201C6000DF93EC01988189812B813C81232B31F08F3F31F481E09F3F19F403C081E001C0E6
:201C800080E080FD19C0CE010E94B20381110CC00E943A14882381F08A81882369F082E08D
:201CA000DF91CF910C94D914CE010E94170ECE01DF91CF910C947B03DF91CF9108950E9465
:201CC00061140E9471140E948F1480E090E00E94850980E090E00C949B098091600090917D
:201CE00061000E94E5150C945F0E0E9451140C946D0EE92FE295EF704E2F50E0FA01329759
:201D0000EE30F105B0F4E65CFF4F0C946C19803F91F018F4883E68F40EC0843F51F40BC047
:201D2000883E48F0813F29F406C093FB882780F9089580E0089581E008950E9402140E945A
:201D4000790E0895CF93DF9300D000D01F92CDB7DEB70F900F900F900F900F90DF91CF9136
:201D60000895CF93DF9300D000D000D0CDB7DEB726960FB6F894DEBF0FBECDBFDF91CF9196
:201D800008951F93CF93DF93C0910F0116E080911001C81799F0D0E01C9FF0011D9FF00D2A
:201DA0001124EF5EFE4F4081518162817381848195810E94B10E2196C770E9CFDF91CF91F8
:201DC0001F9108954091410150914201609143017091440180914501909146010C94B10EE6
:201DE0000F931F93CF93DF938091460182958F7009F05DC080914301882309F458C0809111
:201E00000F01109110016091410170914201C0914401D091450191E06F3F09F090E0292F6C
:201E200006E0811709F443C0209721F07F3F21F030E003C031E001C0322F90E030FD34C0F6
:201E4000089FF001099FF00D1124DF01AF5EBE4F11963C911197371327C03C91361324C0CF
:201E600012963C91129731111FC013964D915C9114974C1B5D0B483C5105B0F4809146015F
:201E80008F70806180934601EA5EFE4F80818F708061808381E491E00E942F0EDF91CF910A
:201EA0001F910F910C94C10E01968770BACFDF91CF911F910F9108959F92AF92BF92CF926B
:201EC000DF92EF92FF920F931F93CF93DF93CDB7DEB761970FB6F894DEBF0FBECDBF8C0172
:201EE00085E0F801DE011D9601900D928A95E1F7F80140815181E280909141016091420146
:201F000020914401309145012115310531F06F3F31F481E09F3F19F403C081E001C080E0D3
:201F2000F82FF1709F2E80FD46C1F801A380B48081E4C82E81E0D82EF0904301F501E21BFF
:201F4000F30BFF2009F4DFC080914601E83CF10508F09BC0282F207F09F052C0561313C0C6
:201F6000491311C0FE2CE1100EC08F708061809346010E94E20EC6010E942F0E8091460181
:201F8000F801858358C1AB2831F05F3F31F481E04F3F19F403C081E001C080E080FD03C0EF
:201FA00081E08E2502C080E090E0F82FF170FF2E80FF1CC080910F012091100136E08217D9
:201FC00009F417C190E0389FF001399FF00D1124EF5EFE4F6181561306C06081461303C042
:201FE0006281E61203C001968770E9CFFE2CEE2009F421C1809146018160809346015AC039
:20200000561306C0491304C0E11002C0F8019FC04D875E878D859E850E949D0E882379F116
:20202000EE2069F120914601822F82958F7090E0029774F0809141019091420198878F8324
:202040001986BB86AA862C87CE0107960E942F0E86E0F801A1E4B1E001900D928A95E1F7D6
:202060000E94F00E0E94E20E0DC0561729F14D875E878D859E850E949D0E81112CC0C80158
:202080000E942F0EFF24F394D6C0282F207F69F77A2DB98AA88A6E2D89890E94A20E81E44B
:2020A00091E00E942F0E86E0F60111928A95E9F70E94E20EF12CBFC04913D9CFE110D7CF08
:2020C000F8018583C8010E942F0E86E0F60111928A95E9F7B0C0EE2091F220914601822FAE
:2020E00082958F7090E002970CF4B2CF80914101909142019A8389831B82BD82AC822E83A5
:20210000CE010196A3CFE83CF10508F047C0FE2CEE2009F4B4CF561330C049132EC02091C2
:20212000460120FD21C0822F82958F70482F50E041155105C9F0F80125834F30510541F0E0
:202140008F5F982F9295907F822F8F70892B8583C8010E942F0E86E0F801A1E4B1E001907A
:202160000D928A95E1F742C086E0F801A1E4B1E001900D928A95E1F75EC04D875E878D8542
:202180009E850E949D0E811163CF80914601816080934601C8010E942F0E4DC07A2DB98AD9
:2021A000A88A6E2D89890E94A20E86E0F60111928A95E9F71BC0EE2009F461CF4D875E8720
:2021C0008D859E850E949D0EF82E882309F457CF86E0F801A1E4B1E001900D928A95E1F7ED
:2021E00081E491E00E94DA0A0E94F00E0E94E20E22C04D875E878D859E850E940214292F71
:2022000022952F70223028F49F7039F0811105C00BC0243028F49F7049F4805E883020F03E
:20222000C8010E942F0E9F2CF92C05C0F8019581907F99F7F9CF8F2D61960FB6F894DEBF2A
:202240000FBECDBFDF91CF911F910F91FF90EF90DF90CF90BF90AF909F9008951F93CF93BB
:20226000DF93CDB7DEB72C970FB6F894DEBF0FBECDBF4F83588769877A878B879C87CE0123
:2022800007960E945C0F8823D1F09F8188852A853B85232B31F08F3F31F481E09F3F19F4DE
:2022A00003C081E001C080E080FD47C04F81588569857A858B859C850E94B10E3EC086E0C5
:2022C000FE013796DE01119601900D928A95E1F7FF81E8856A857B856115710531F0EF3F6E
:2022E00031F481E0FF3F19F403C081E001C080E080FD23C02091100130E0C901019687703E
:20230000992740910F0150E084179507F1F1F983EA837D836C8396E0929FD001939FB00D94
:202320001124AF5EBE4FFE01319601900D929A95E1F7809310010E94C10E16E080910F01A5
:2023400090911001891771F1189FC00111248F5E9E4F0E945C0F882329F1E0910F011E9FB2
:20236000F0011124EF5EFE4F4081518162817381848195810E94B10E80910F0190E001968F
:202380008770992780930F01D9CF0E94750E1092100110920F01E1E4F1E086E0DF011D92A6
:2023A0008A95E9F72C960FB6F894DEBF0FBECDBFDF91CF911F910895EF92FF920F931F9392
:2023C000CF93DF938C01892B09F46CC0F12CEE24E394E8012196F8018491843740F48430C8
:2023E00008F051C0813081F0823019F15BC0853709F444C0A8F19CE7980F903708F052C08A
:202400008F770E94820B41C00E5F1F4FFE01849190E2980F983050F48770FE2D01C0FF0F81
:202420008A95EAF78F2F0E94641414C00E94E00A2DC00E5F1F4FFE01849190E2980F9830A7
:2024400060F48770FE2D01C0FF0F8A95EAF78F2F0E946A140E948F1419C00E94820B16C036
:202460000E5F1F4FFE01C491CC2381F08FE99FE00197F1F700C00000C150F6CF0E5F1F4FE5
:20248000FE01F49003C00E94E00A8E018F2D882309F49FCFEFE9FFE03197F1F700C00000E2
:2024A0008150F5CFDF91CF911F910F91FF90EF900895089508950C945A120C945B120E94C7
:2024C0005D12609391017093920180939301909394010C945F0E0C945F120F931F93009110
:2024E0009101109192012091930130919401602B712B822B932B1F910F910C945F120F93E6
:202500001F930091910110919201209193013091940160237123822393231F910F910C94B5
:202520005F120F931F930091910110919201209193013091940160277127822793271F91B2
:202540000F910C945F120C945A120E94A31260938D0170938E0180938F01909390010C945D
:202560005F0E60E070E0CB010C94A5120F931F9341E050E060E070E08A019B0104C0000F0C
:20258000111F221F331F8A95D2F7C901B8011F910F910C94A5120F931F9341E050E060E081
:2025A00070E004C0440F551F661F771F8A95D2F780918D0190918E01A0918F01B09190015B
:2025C0008A019B01082B192B2A2B3B2BC901B8011F910F910C94A5120F931F9341E050E0D3
:2025E00060E070E004C0440F551F661F771F8A95D2F7409550956095709580918D01909149
:202600008E01A0918F01B09190018A019B01082319232A233B23C901B8011F910F910C94EC
:20262000A5120F931F9341E050E060E070E004C0440F551F661F771F8A95D2F780918D0181
:2026400090918E01A0918F01B09190018A019B01082719272A273B27C901B8011F910F911B
:202660000C94A5120F931F9300918D0110918E0120918F0130919001602B712B822B932B3B
:202680001F910F910C94A5120F931F9300918D0110918E0120918F01309190016023712346
:2026A000822393231F910F910C94A5120F931F9300918D0110918E0120918F0130919001E2
:2026C00060277127822793271F910F910C94A512089522E1929F800D1124E82FE695E69531
:2026E000E695877051E001C0550F8A95EAF785E0E89FF0011124E95BFE4F20E030E070E00F
:202700004081CB01022E02C0969587950A94E2F78170819584278523842781932F5F3F4F47
:202720002530310569F7089522E1929F800D1124682F669566956695982F977085E0689F59
:20274000B001112440E050E080E0FB01E40FF51FE95BFE4F208130E0092E02C0369527951E
:202760000A94E2F721703327042E01C0220F0A94EAF7822B4F5F5F4F4530510531F70895BB
:20278000BF92CF92DF92EF92FF920F931F93CF93DF938C01C0908D01D0908E01E0908F0182
:2027A000F09090018091910190919201A0919301B0919401C82AD92AEA2AFB2ACFE1D0E088
:2027C000D701C6010C2E04C0B695A795979587950A94D2F780FD04C0219790F7B12C07C002
:2027E000BC2EB8018C2F0E940E040197A9F38B2DDF91CF911F910F91FF90EF90DF90CF90DF
:20280000BF900895CF93DF93EC010E94C013BE010E940E04DF91CF9108951F93CF93DF9330
:20282000EB0190910E01992321F0CB010E94021413C0882349F0CB010E94C013182F682F55
:20284000CE010E94691304C0CB010E949413182FBE01812F0E940E04DF91CF911F9108952B
:20286000809195018595859585950895809195018770089590919501977081E009F480E00F
:2028800008958091A10108959091A101892B8093A101089580959091A10189238093A10149
:2028A00008951092A10108959091A001892B8093A001089580959091A00189238093A0019C
:2028C00008951092A001089590919F01892B80939F010895809590919F01892380939F0181
:2028E000089510929F01089580919601089508950C9477140C94781490919601981721F0AB
:20290000809396010C947A14089580919601882329F01092960180E00C947A140895E09101
:202920006000F09161008091A1018083E0916000F091610090818091A001892B8083E09101
:202940006000F0916100908180919F01892B808380919601882381F0E0916000F091610045
:202960009081892B808380916000909161000E949F1581110E948514809160009091610086
:202980000C947A090C94771498E0899F90011124262B209395010E94CB12809195018595A9
:2029A000859585950C94C2141092950180E00C94C214209195018095822380939501982FEE
:2029C000977079F430E0482F082E000C550B2417350739F08595859585950E94EC120C942C
:2029E000D41408956FEF7FEF80E090E00C949D1980E090E00E947A1921E08C3E9E4F09F0AA
:202A000020E0822F089582E090E00C94721983E090E00C947219CF9384E090E00E9472190A
:202A2000C82F81E290E00E9472192C2F30E0A901582BCA01CF910895CF93C92F682F84E0EA
:202A400090E00E9480196C2F81E290E0CF910C948019AB01BC018FE090E00C949119AB0186
:202A6000BC0183E190E00C94911960E070E0CB010C942F1560E070E0CB010E9429150C945F
:202A800035156CEE7EEF80E090E00E949D1960E082E090E00E94801960E083E090E00E94FB
:202AA00080191092910110929201109293011092940160E084E090E00E94801960E081E2B5
:202AC00090E00E94801960E085E090E00E94801960E086E090E00E9480196FEF87E090E075
:202AE0000E94801940E050E0BA0188E090E00E94911960E08DE090E00E94801940E050E0C4
:202B0000BA0188E190E00E94911960E087E190E00E94801940E050E0BA018CE190E00E94F8
:202B2000911960E080E290E00E9480190C943A150C944115682F8EE090E00C948019FC010E
:202B4000329697E080E0915029F021912223D9F38F5FF9CF0895662349F0FC0132960896A1
:202B60002191621729F0E817F907D1F780E0089581E008959C01FC0132969FEF80E041912D
:202B8000461789F09F3F19F4411101C0982F8F5F8630A9F79F3F39F0F901E90FF11D97FDBB
:202BA000FA956283089508959C012A5F3F4FFC014281461301C01282019682179307B9F7CB
:202BC00008950C94BA150C94D415029626E0FC0111922A95E9F7089508950C94EC150C9408
:202BE000EC15CF930E94EF150E9467060E94ED15C0E08C2F0E94F705672B682B692B29F44A
:202C0000CF5FC630B1F780E001C081E0CF9108958BE083BF8AEF8CBF82E089BF08952FB7CB
:202C2000F8948091650290916602A0916702B09168022FBF08959C014FB7F8948091650290
:202C400090916602A0916702B09168024FBF821B930B089578941F920F920FB60F921124C7
:202C60008F939F93AF93BF938091650290916602A0916702B09168020196A11DB11D8093F0
:202C8000650290936602A0936702B0936802BF91AF919F918F910F900FBE0F901F901895B2
:202CA00098E088E10FB6F894A89581BD0FBE91BDA895F894D8E0CEE528E3299320E0299395
:202CC00014BEFFCF08950C94F2140E9467068FE39CE90197F1F700C000000E94670680E05C
:202CE0000E94F70560FF04C00E9463160C94501608950E94F814811102C00E9498150E9462
:202D000003158093A2010E940B1590936A02809369020E940715682F70E080E090E00C9401
:202D20006B120F931F93CF93DF930E940F168C010E94C1090E947B170E9469090E945919D2
:202D40008B9A80E0815041F0A895EFE9FFE03197F1F700C00000F6CF8B987894FFEF20E79F
:202D600032E0F15020403040E1F700C000000E94CB09C0E0DCE080918602882331F01092BF
:202D800086020E940F168C0107C0C8010E941B16069788F4C1110FC00E94641880918C027D
:202DA000882329F08091760284FD0E94D3090E942F17C0E0E0CF0E94F115811102C0C1E0F3
:202DC000DACFF89491B3939A892F8C6081BB82B38D2782BB8FE7E8E3F1E08150E040F04014
:202DE000E1F700C0000082B38D2782BB91BB93987894E5CF8091340208950895CF93DF9389
:202E000000D01F92CDB7DEB79091A501981307C02091A3013091A4012617370791F0809315
:202E2000A5017093A4016093A30189837B836A838091A30284FF05C063E0CE0101960E946D
:202E400060180F900F900F90DF91CF910895BC0184E00C94FE16BC0183E00C94FE16CF93A5
:202E6000DF93CAE0D0E08091760284FF18C08091B1019091B2019817E1F028E0829FC001A1
:202E8000112468E08D549E4F0E945C188091B10190E001968F7099278093B1010AC00E9417
:202EA00064188FE99FE00197F1F700C000002197D1F6DF91CF910895FC01A091B201B0E002
:202EC0009D012F5F3F4F2F7033278091B101821771F083E0AA0FBB1F8A95E1F7AD54BE4F87
:202EE00098E001900D929A95E1F72093B2010E9464180C942F1782E690E00895FC01808146
:202F00008076803281F58181813041F489EA91E0909388028093870288E00895823041F492
:202F200083E392E0909388028093870281E008958A3021F483818093330215C0893099F43C
:202F4000828193818115924081F484819581892B61F481E08093A801868197819093A70152
:202F60008093A60102C080E008958FEF08952091A6013091A701232B71F02091A8012130A2
:202F800051F4FC018081809334021092A7011092A60181E008958FEF08950895FC0193814B
:202FA0009330D9F068F4913081F0923009F060C080E492E090938802809387028BE30895F2
:202FC000913281F19232F1F153C08BE792E0909388028093870282E108958281813061F0D1
:202FE00040F0823089F0833009F042C08DE892E013C08BEC92E010C089EA92E090938802C3
:203000008093870280E2089583E992E0909388028093870284E108959093880280938702A3
:2030200084E008958281882329F0813009F58BE692E002C082E592E0909388028093870252
:2030400089E0089584819581009751F0019781F48FEC92E0909388028093870282E3089532
:2030600081E093E0909388028093870280E4089580E008951F93CF93DF93162FEA012881D6
:2030800024FF05C0398128E82327298302C02AE52883212FFC01CE010296DC0131913D93E9
:2030A00021501216DCF3612F0E94FC011C5F1883DF91CF911F91089546E752E00C943A18F5
:2030C00043EA52E00C943A18CF93DF9360918902635067FD91C080918502CCE0D0E0C81B10
:2030E000D109C357DD4F80918402803120F4CE010E94CD177FC08D3209F06CC0683009F04B
:2031000079C083EC80936B028AE580936D00109283028881807621F0CE010E947E1747C054
:203120009A81109274028981811106C01092750224E732E082E036C0853019F490938A02FB
:203140002EC08630A1F48B81813041F0823031F0833021F0813211F0823221F4CE010E94C3
:20316000CE1701C080E090E49093830220C0883079F0893019F490938C0211C08A3059F0E1
:203180008B3069F48BE4809377028093A40207C02CE832E002C024E732E081E003C024E768
:2031A00032E080E0309388022093870209C08F3F39F4988197FD8E8190E89093830207C0AD
:2031C0009F81911104C09E81981708F4892F80936C0010C08091830287FF0CC0CE010E943F
:2031E000B7178F3F21F48EE180936D0003C0811110926C001092890280916D0084FF4CC092
:2032000080916C008F3F09F447C0C82F893008F0C8E08C1B80936C0090916B0288E889273B
:2032200080936B02CC2359F180918702909188022091830226FF12C0ABE6B2E02C2FAC0138
:203240004B565240FA01EA0FFB1FE4911196EC931197215011962111F5CF08C0ECE6F2E070
:20326000DC012C2F3D9131932150E1F701962FEF2C0F820F911D90938802809387026C2F28
:203280008CE692E00E94FC01CC5FCC3019F08FEF80936C00C0936D0084E190B39C7031F4E5
:2032A0008150D9F710928A0210928202DF91CF91089585B7886085BF8BB780688BBFA6E743
:2032C000B2E08BE411968C931197E3EAF2E081838AE58C9380830895EE0FFF1F0590F49179
:2032E000E02D0994E199FECF9FBB8EBBE09A99278DB30895A8E1B0E042E050E00C94A5195A
:20330000262FE199FECF9FBB8EBBE09A01970DB2021631F02DBB0FB6F894E29AE19A0FBE67
:2033200008950396272F0E9481190E948019252F0E948119242F0C9481190196272F0E94DE
:2033400081190C948019DC01CB01FC01E199FECF06C0FFBBEEBBE09A31960DB20D92415054
:203360005040B8F70895F894FFCF9701FA165C17FD162B172717FF5AE200E900EA00B500A6
:20338000B600B700CD008301CC008A01920194012102230224022502260227022A02B3002B
:2033A000B4006F007000818283906091619262936394649596970605010007323337343655
:2033C00035E200E900EA00B500B600B700CD008301CC008A0192019401210223022402257E
:2033E00002260227022A02B300B4006F007000818283FFFFFFFFFFFFFFFFFFFFFFFFFFFF90
:20340000FFFFFFFFFFFFFFFFFFFFFFFFFFFFFFFFFFFFFFFFFFFFFFFFFFFFFFFFFFFFFFFFCC
:20342000FFFFFFFFFFFFFFFFFFFFFFFFFFFFFFFFFFFFFFFFFFFFFFFFFFFFFFFFFFFFFFFFAC
:20344000FFFFFFFFFFFFFFFFFFFFFFFFFFFFFFFFFFFFFFFFFFFFFFFFFFFFFFFFFFFFFFFF8C
:20346000FFFFFFFFFFFFFFFFFFFFFFFFFFFFFFFFFFFFFFFFFFFFFFFFFFFFFFFFFFFFFFFF6C
:2070000061C00000A0C0000084C0000082C0000080C000007EC000007CC000007AC0000075
:2070200078C0000076C0000074C0000072C0000070C000006EC000006CC000006AC00000C8
:2070400068C0000066C0000064C0000062C0000060C00000EC2DFD2DB7B6B0FCFDCF27BF6E
:20706000E895B7B6B0FCFDCF21E1B7B6B6FCF4CF089509021200010100803209040000004F
:207080000000000012011001FF000008C016DC050201010200010E035500530042006100AB
:2070A000730070001C037700770077002E00660069007300630068006C002E0064006500CB
:2070C0000403090411241FBECFE5D8E0DEBFCDBF24B7D8E0CEE539913833399109F03FEF89
:2070E00030939E0020939D0010E0A0E6B0E0ECE5F8E702C005900D92A636B107D9F720E0CF
:20710000A6E6B0E001C01D92AD39B207E1F772D1A3C376CFA82FB92F80E090E041E050EA94
:20712000609530E009C02D9182279795879510F084279527305EC8F36F5FA8F30895EADF53
:207140008D939D930895CF93CFB7CF93DF93C395839BE9F7839B0BC0839B09C0839B07C07B
:20716000839B05C0839B03C0839B01C089C06F93C0918000DD27C957DF4F2F9365E5839BD4
:2071800003C02F916F91E6CF0F931F934F9320E040E15F9300B30C7003FB27F93F9350E01F
:2071A0003BE039C01C7040642F77012F5F5F1EC0406810B31C702F7752501FC0406400B3A4
:2071C0002F770C70D1F15F5F00C023C0406210B32F771C7091F15F5F00C025C00C7010273B
:2071E000515012F45D5F0000115027952C3F10B3C8F61C700127015027952C3FC8F64227D0
:20720000499300B30C7010274F73115027952C3FA8F64695469510B31C7079F0012701505D
:2072200027952C3F98F66B5A60F3315000B3B0F600C010E41ABF002717C03B503195C31BED
:20724000D04010E41ABF0881033CF9F00B34E9F020917E001981110F1213EDCF093651F13D
:207260000D3211F0013E39F7009385003F915F914F911F910F912F916F91CAB7C6FD67CF1D
:20728000DF91CF91CFBFCF91189520918500222369F310918300112339F534303AF13093D4
:2072A000830020937F00109180003BE0311B309380001CC0009183000130B4F40AE53091D5
:2072C000610034FD14C000936100C3E7D0E013C0052710E000C0000002BB1AC0052710E098
:2072E000221F1DC010E021C04AE502C032ED432FC4E1D0E032E011B31C60939A02B311BBC8
:207300005CE020E865E320FF052702BB279517951C3FF0F66695B8F7B1F720FF052702BBD6
:20732000279517951C3FD0F62795179517FF052700001C3F02BBB0F629913A9519F7037F41
:2073400010918400110FC651D04002BB11F010937E0010E41ABF086011B3137F402F437F26
:2073600054E05A95F1F702BB11BB42BB7FCFFC013381932F4481842F2281203339F443706D
:20738000E42FF0E0EE59FF4F80810895283529F431110EC0E1E0F0E006C0203571F43111FA
:2073A00027C0E0E0F0E089E080935700849108953830F1F4E3E0F0E0F6CF203221F4FC01C8
:2073C000EE0FFF1F06C0283231F4FC01EE0FFF1F319684910895203A09F429C2203C19F411
:2073E00065812DD205C02F3F19F481EF8093710080E0089511BA80E182BB81E08BBF82E001
:207400008BBFE0E0F1E7A89531978040E1F780919D00877F21F480919E00882379F0849B42
:207420000DC0F8948B9A12BA1BBE15BE81E08BBF1BBEE0916A00F0916B0009958EEF8093DD
:20744000710014BE88E10FB6F89481BD11BC0FBE85B7826085BF8BB780648BBF8B9A8CE0F4
:20746000E0E0F5E3A89531978040E1F78B98789480918300835087FD46C190918000CCE069
:20748000D0E0C91BD109C957DF4F90917F009D3209F0B9C0883009F034C183EC80937300B4
:2074A0008AE580936100109272004881842F807639818823B9F186E690E0909382008093C0
:2074C0008100333031F4CE0152DF8093690024E090C0353019F13A3009F18CEF830F86303D
:2074E00098F48A819B819093700080936F003930B9F08E8180936E008D81827080936D00A2
:2075000030936C002FEF6FC080917100323011F48E7F01C081608093710002C021E069C0E7
:2075200020E067C08A8110927C00311106C010927D008CE790E022E050C0353019F480935A
:2075400084003DC03630A9F59B81913019F484E890E704C0923041F482E790E79093820099
:207560008093810022E121C09330F1F4811108C080EC90E7909382008093810024E015C09C
:20758000813041F484EA90E790938200809381002CE10BC0823041F486E990E7909382009D
:2075A000809381002EE001C020E080E48093720018C0383079F0393031F4809386008CE73C
:2075C00090E020E00AC021E03A3009F020E08CE790E003C086E890E021E0909382008093D0
:2075E00081002F3F31F447FD2E8180E88093720007C08F81811104C08E81821708F4282F6F
:20760000209360007EC09091720097FF7AC090916E00E82E981708F4E92E9E1990936E0007
:20762000DD24D3949111D12CF12CFE1408F066C020916C0080916F0090917000273078F009
:207640008E010F5F1F4F68819C012F5F3F4F3093700020936F00F3D0F394E801E6CF81154A
:20766000904708F04CC0F394F394F894E0916F00F09170008991999121E00C012093570068
:20768000E8951124789480916F009091700002969093700080936F008F779927892B59F0AB
:2076A000DD2009F4C2CFFE1408F4BFCF80916D00882309F4BACFF894E0916F00F091700097
:2076C000329783E080935700E895789407B600FCFDCFF894E0916F00F0917000329785E07B
:2076E00080935700E895789407B600FCFDCFF89481E180935700E895789497CFD110109248
:207700006000109283008091610084FF6CC0809160008F3F09F467C0F82E893010F028E079
:20772000F22E8F19809360008091730098E8892780937300FF2009F449C08091720087FFA6
:2077400027C080916E008F1508F4F82E8F1980936E00E0906C00C4E7D0E084E790E0FC2F97
:20776000F81BFF1598F500916F001091700086E08E1518F4C8015BD002C0F8018491888360
:2077800021960F5F1F4F1093700000936F00E5CFE0918100F091820086FF0BC084E790E06D
:2077A000DC0124912D9331962F2D280F2A13F9CF09C084E790E0DC0121912D932F2D280F92
:2077C0002A13FACFF0938200E09381006F2D84E790E0B5DC84E08F0D8C3019F09FEF90932C
:2077E00060008093610084E190B39C7031F48150D9F71092840010927E00809171008031C2
:2078000030F0849B0FC080917100805109C0849909C080917100823028F0809171008250B8
:207820008093710080917100811122CEFACDE199FECF9FBB8EBBE09A99278DB30895262FA3
:20784000E199FECF9FBB8EBB2DBB0FB6F894E29AE19A0FBE01960895F894FFCFFF5A1E95A7
:02786000020024
:00000001FF
